:100000000C942A000C943F000C943F000C943F0089
:100010000C943F000C943F000C943F000C943F0064
:100020000C943F000C943F000C943F000C943F0054
:100030000C943F000C943F000C943F000C943F0044
:100040000C943F000C943F000C943F000C943F0034
:100050000C943F0011241FBECFE5D8E0DEBFCDBF1A
:1000600010E0A0E6B0E0E4EFF3E002C005900D92EE
:10007000AA36B107D9F70E945B000C94F8010C94E2
:1000800000003F983E9A389839983A983B98309AB1
:10009000319A329A379A0895389839983A983B9815
:1000A00097B1892B87B90895369A349BFECF349A3D
:1000B00084B195B108958FEF81BB84BB1ABA0E94B9
:1000C000410080E00E944C00CAE0D0E00E94540051
:1000D000BC01990F880B990B0E9444012CE53FE865
:1000E00042E050E40E949A000E940C01CB01BE0144
:1000F0000E94D0012FE030E0DB01A05ABF4FFC018D
:10010000E05AFF4F919A9C9195BB91988FE99FE09F
:100110000197F1F700C00000909A908195BB9098EC
:100120008FE99FE00197F1F700C0000021503109ED
:1001300049F7CCCF0E94AE000C9496010E948F012B
:1001400058F00E94880140F029F45F3F29F00C9498
:100150007F0151110C94CA010C9485010E94A701E2
:1001600068F39923B1F3552391F3951B550BBB27E6
:10017000AA2762177307840738F09F5F5F4F220F2B
:10018000331F441FAA1FA9F335D00E2E3AF0E0E822
:1001900032D091505040E695001CCAF72BD0FE2F6C
:1001A00029D0660F771F881FBB1F26173707480700
:1001B000AB07B0E809F0BB0B802DBF01FF279358B8
:1001C0005F4F3AF09E3F510578F00C947F010C94FC
:1001D000CA015F3FE4F3983ED4F38695779567951F
:1001E000B795F7959F5FC9F7880F911D96958795ED
:1001F00097F90895E1E0660F771F881FBB1F62170C
:1002000073078407BA0720F0621B730B840BBA0BC9
:10021000EE1F88F7E09508950E9413016894B111CC
:100220000C94CA0108950E94AF0188F09F5798F07E
:10023000B92F9927B751B0F0E1F0660F771F881FEB
:10024000991F1AF0BA95C9F714C0B13091F00E9405
:10025000C901B1E008950C94C901672F782F882750
:10026000B85F39F0B93FCCF3869577956795B3952C
:10027000D9F73EF490958095709561957F4F8F4F9B
:100280009F4F0895E89409C097FB3EF490958095A0
:10029000709561957F4F8F4F9F4F9923A9F0F92F4C
:1002A00096E9BB279395F695879577956795B795CA
:1002B000F111F8CFFAF4BB0F11F460FF1BC06F5FB0
:1002C0007F4F8F4F9F4F16C0882311F096E911C0C2
:1002D000772321F09EE8872F762F05C0662371F0E3
:1002E00096E8862F70E060E02AF09A95660F771FF7
:1002F000881FDAF7880F9695879597F9089597F9EB
:100300009F6780E870E060E008959FEF80EC0895BB
:1003100000240A94161617061806090608950024E4
:100320000A9412161306140605060895092E03945E
:10033000000C11F4882352F0BB0F40F4BF2B11F4D2
:1003400060FF04C06F5F7F4F8F4F9F4F089557FD31
:100350009058440F551F59F05F3F71F04795880F33
:1003600097FB991F61F09F3F79F0879508951216CA
:1003700013061406551FF2CF4695F1DF08C0161676
:1003800017061806991FF1CF869571056105089427
:100390000895E894BB2766277727CB0197F908953E
:1003A00097FB072E16F4009407D077FD09D00E9422
:1003B000E40107FC05D03EF4909581959F4F089588
:1003C000709561957F4F0895AA1BBB1B51E107C033
:1003D000AA1FBB1FA617B70710F0A61BB70B881FD5
:1003E000991F5A95A9F780959095BC01CD01089564
:0403F000F894FFCFAF
:0A03F4003F065B4F666D7D077F6FCB
:00000001FF
